:020000040800F2
:1000000010FA0120610200087F2A00087B2A0008FC
:100010007D2A0008270A0008092F000800000000B8
:10002000000000000000000000000000A101000826
:10003000290A000800000000FD010008212B00082B
:100040008502000885020008850200088502000874
:100050008502000885020008850200088502000864
:100060008502000885020008850200088502000854
:100070008502000885020008850200088502000844
:100080008502000885020008850200088502000834
:100090008502000885020008850200088502000824
:1000A0008502000885020008850200088502000814
:1000B0008502000885020008492B00088502000817
:1000C00085020008850200088502000885020008F4
:1000D00085020008FD2E0008850200088502000840
:1000E00085020008850200088502000885020008D4
:1000F00085020008850200088502000885020008C4
:1001000085020008850200088502000885020008B3
:1001100085020008850200088502000885020008A3
:100120008502000885020008850200088502000893
:1001300085020008C10A000885020008850200083F
:100140008502000885020008850200088502000873
:100150008502000885020008850200088502000863
:100160008502000885020008850200088502000853
:1001700085020008850200088502000800000000D2
:100180008502000885020008DFF810D000F00EFCA0
:100190000048004725BA0008AFF3008010FA01209C
:1001A0002C4B19680868B0E8F04F80F30988BFF35A
:1001B0006F8F4FF0000080F311887047000000003F
:1001C00008480068006880F308884FF0000080F35A
:1001D000148862B661B6BFF34F8FBFF36F8F00DF35
:1001E00000BF00BF08ED00E0DFF80C00016841F43B
:1001F00070010160704700BF88ED00E0EFF30980F7
:10020000BFF36F8F134B1A681EF0100F08BF20ED5D
:10021000108A20E9F04F106009B44FF0500080F3CD
:100220001188BFF34F8FBFF36F8F16F03BF94FF07C
:10023000000080F3118809BC19680868B0E8F04F25
:100240001EF0100F08BFB0EC108A80F30988BFF3CE
:100250006F8F7047B8020020EFF3058070470000F1
:100260000948016841F47001016008488047084866
:100270000047FEE7FEE7FEE7FEE7FEE7FEE7FEE7F4
:10028000FEE7FEE7FEE7000088ED00E0392B0008FE
:10029000890100082DE9F05F0546002092469B4643
:1002A00088460646814640241BE02846414647468C
:1002B000224600F094FA53465A46C01A914110D390
:1002C00011461846224600F07BFA2D1A67EB01080A
:1002D0004F4622460120002100F072FA17EB000978
:1002E0004E41201EA4F10104DFDC484631462A4677
:1002F0004346BDE8F09F00000649074A086850439E
:1003000043F2390210440860400870470149086010
:1003100070470000380300206D4EC64110B5431AE7
:10032000934209D28318881803E010F8011D03F8DE
:10033000011D521EF9D210BD40EA01039B0703D0F4
:1003400009E008C9121F08C0042AFAD203E011F814
:10035000013B00F8013B521EF9D210BDD2B201E0C0
:1003600000F8012B491EFBD270470022F6E710B5BA
:1003700013460A4604461946FFF7F0FF204610BD13
:10038000421C10F8011B0029FBD1801A704730B5C0
:1003900004460020034600E05B1C934203D2E05C6D
:1003A000CD5C401BF8D030BD2DE9FE4F804681EA80
:1003B0000300C00F0C46009021F0004123F00045DF
:1003C000B8EB0200A94105D24046214690461C46A2
:1003D0000B46024623F00040104347D0270DC7F3D9
:1003E0000A00C3F30A510290401A019040286BDAC8
:1003F000C3F3130040F4801B0098924620B1002301
:10040000D2EB030A63EB0B0B01985946C0F1400293
:10041000504600F0D5F906460D4650465946019A19
:1004200000F0EDF910EB08006141002487EA115259
:1004300084EAE7731A4340D0009A62B3019A012A12
:100440004FEA075215DC001B61EB02014FF000423E
:1004500002EA0752CDE90042001C41F58011324604
:100460002B4600F024FA03B0BDE8F08F4046214649
:10047000F9E7001B61EB0201001C41F58013001835
:100480005B412018A2F5001747EB030140EAD57045
:10049000B6196D4111E06D084FEA360645EAC075A0
:1004A0004FEA0752001B61EB0201001C41F580116D
:1004B00049084FEA30000019514132462B4603B03B
:1004C000BDE8F04F00F0E4B900980122400000239D
:1004D000D0EB020263EBE073009821464FEAE07430
:1004E000B8EB000061EB0401E9E783F000435BE750
:1004F00081F0004158E72DE9FE4F81EA030404F042
:10050000004421F0004100944FF0000B23F0004321
:1005100050EA01045ED052EA03045BD0C3F30A54EC
:10052000C1F30A552C44A4F2F3340194A0FB025405
:10053000C1F3130141F48011C3F3130343F4801397
:1005400001FB024400FB034E840A970A44EA8154EB
:1005500047EA8357A4FB076802958D0A05FB0785C8
:100560004FEA932C04FB0C542705029D4FEA0658D2
:1005700047EA1637B5EB08056EEB070C870E920EAF
:1005800047EA811742EA8312A7FB0201B6EB0B018F
:1005900064EB00042B0D43EA0C335E1844EB1C5053
:1005A000DA465146E7FB0201C5F313044FEA0B3369
:1005B00043EA14534FEA0432019C43EA0603A4F1D0
:1005C0000C040294009CCDE900B400F070F903B073
:1005D000BDE8F08F00200146F9E72DE9F04D81EAF2
:1005E000030404F0004B21F0004514464FF0000ACC
:1005F00023F0004150EA050220D054EA01021DD048
:10060000C5F30A570246C5F31303C1F31300C1F340
:100610000A5640F4801543F48013A7EB0608101B1C
:10062000D64608F2FD3873EB050002D308F1010845
:1006300001E092185B41B8F1000F03DA0020014697
:10064000BDE8F08D00204FF48011064684460EE090
:10065000171B73EB050705D3121B63EB050306435A
:100660004CEA010C49084FEA300092185B4150EA0D
:100670000107EDD152EA030012D082EA040083EAB6
:100680000501084305D0101BAB4106D2012200230F
:1006900006E000224FF0004302E06FF00102531029
:1006A0001AEB06004CEB085110EB0A0041EB0B0172
:1006B000BDE8F04D00F0ECB80EB540F233410291C8
:1006C0000021CDE900110A460B4600F0F0F803B016
:1006D00000BDC1F30A5210B5C1F3130140F2FF335C
:1006E00041F480119A4201DA002010BD40F23343F8
:1006F0009A42A2F2334203DC524200F070F810BD7D
:10070000904010BD00F0004230F000400AD0C10D12
:1007100001F56071C0F3160042EA0151C2084007BA
:1007200011437047002001467047000030B5041E99
:1007300071F1000404DB4FF00044404264EB01011E
:10074000141E73F1000405DB1C464FF000435242B7
:1007500063EB04038B4208BF824230BD01F00043CB
:1007600030B421F0004150EA010206D00A0DA2F592
:100770006072C1F31301002A02DC30BC0020704714
:10078000440F44EAC104C100E01830BC00EBC25081
:1007900000F047B830B50B46014600202022012466
:1007A00009E021FA02F59D4205D303FA02F5491B3F
:1007B00004FA02F52844151EA2F10102F1DC30BD55
:1007C000202A04DB203A00FA02F100207047914011
:1007D000C2F1200320FA03F3194390407047202A06
:1007E00004DB203A21FA02F00021704721FA02F3DB
:1007F000D040C2F120029140084319467047202A98
:1008000006DBCB17203A41FA02F043EAE07306E038
:1008100041FA02F3D040C2F1200291400843194648
:1008200070470029A8BF7047401C490008BF20F04E
:100830000100704710B4B0FA80FC00FA0CF050EAE6
:10084000010404BF10BC704749B1CCF1200421FA67
:1008500004F411FA0CF118BF012121430843A3EB62
:100860000C01CB1D4FEA00614FEA102042BF00206F
:1008700010BC704700EBC35010440029A4BF10BC4B
:100880007047401C490008BF20F0010010BC7047B1
:1008900010B5141E73F1000408DA401C41F1000188
:1008A00092185B411A4301D120F0010010BD2DE9DF
:1008B000F04D92469B4611B1B1FA81F202E0B0FAD6
:1008C00080F220329046FFF77BFF04460F4640EA55
:1008D0000A0041EA0B0153465A46084313D0114619
:1008E00053EA010019D0C8F140025046FFF777FFE4
:1008F00005460E46504659464246FFF761FF0843FB
:1009000005D0012004E020463946BDE8F08D0020E6
:10091000054346EAE0762C4337430A986305E40A28
:10092000A0EB08000022FD0A44EA47540A3002D531
:1009300000200146E9E7010510196941DDE9084594
:1009400000196941BDE8F04DA2E7C1F30A52C1F3B5
:10095000130140F2FF3341F480119A4202DA002081
:100960000146704740F233439A42A2F2334202DC1E
:100970005242FFF734BFFFF723BF000030B5041E1B
:1009800071F1000404DB4FF00044404264EB0101CC
:10099000141E73F1000405DB1C464FF00043524265
:1009A00063EB0403994208BF904230BD064C074DEB
:1009B00006E0E06840F0010394E80700984710342F
:1009C000AC42F6D3FFF7E4FB58AA010878AA010865
:1009D00070B58C1810F8015B15F0070301D110F801
:1009E000013B2A1106D110F8012B03E010F8016B2E
:1009F00001F8016B5B1EF9D12B0705D40023521EB1
:100A00000DD401F8013BFAE710F8013BCB1A921C18
:100A100003E013F8015B01F8015B521EF9D5A14216
:100A2000D8D3002070BDFEE77047006800F5805005
:100A3000816921F0020181617047006800F58050F2
:100A4000816941F0020181617047006800F58050C2
:100A5000816921F4005181617047006800F5805080
:100A6000816941F4005181617047000008B5074970
:100A70004FF4FA520968B1FBF2F14143009100BF13
:100A80000098411E0091FAD208BD0000000000202D
:100A900038B50446206800F58050816941F4801122
:100AA0008161206800F58050806900900120FFF787
:100AB000DDFF2068009900F58050816138BD00009D
:100AC00010B5084CA06A04F0E2FF08B10AF030FD4E
:100AD00020684FF4803100F5805041614021416130
:100AE00010BD0000F80400201079537940EA032378
:100AF0000748084403641178D37841EA0361937886
:100B000052781B0443EA02221143416470470000FB
:100B1000008002402DE9F041AEB00446002904D027
:100B20004FF40060E060C000A060002511951295B0
:100B30001395149515951695E06900287DD01795A5
:100B40004FF40070189019951A951B951C951D95DA
:100B500040271E971F952095219522952395249532
:100B60002595269580262796289529952A952B95B3
:100B70002C952D952068026845490A40D4E9021356
:100B80001943179B194341F4007111430160206818
:100B9000D0F80080012000F057FC2068C0F80080E9
:100BA0002068476020684768012000F04DFC2068FD
:100BB0004760206885602068C560206881694FF6BD
:100BC0004172114041F080018161206887690120F4
:100BD00000F03AFC206887612068C5612068C76919
:100BE000012000F031FC2068C7610195B00402903B
:100BF0000395011104910595069507950895042123
:100C000009910A9040120B9080010C9040120D90B7
:100C10000E960F951095206800F5805081691D4A49
:100C200011401D4A0A438261206800F580508569A1
:100C3000012000F009FC206800E016E000F580507B
:100C400085612068154900F580500160206800F535
:100C500080500568012000F0F7FB206800F5805007
:100C60000560A069012804D00AE04FF48060179065
:100C700066E7206800F58050C169094A1143C161E7
:100C800062692EB02046BDE8F0410021FFF72CBF7D
:100C90000F8120FF233FDEF8040020028020C102E4
:100CA0004000010038B504462068016821F00401C5
:100CB00001602068006800900120FFF7D7FE2168DE
:100CC0000098086038BD38B504462068016841F0D6
:100CD000040101602068006800900120FFF7C6FE53
:100CE00021680098086038BD38B50446206801685E
:100CF00021F0080101602068006800900120FFF7E2
:100D0000B5FE21680098086038BD38B504462068F3
:100D1000016841F00801016020680068009001202E
:100D2000FFF7A4FE21680098086038BD70B5B3F5E0
:100D3000804F05D06FF0704140F82210002070BD48
:100D400050F82230084C2340D1E9004544EA05140C
:100D50008D688E892D0245EA064589692C430C432E
:100D60001C4340F82240E9E70000F0CFF0B50C68E2
:100D700050F82450114A1540D1E90123D1E9036705
:100D80001A433E4332434E6932438E693243CE6941
:100D900032430E6A32434E6A32438E6A3243CE6A1F
:100DA0003243CE6B096B32430A432A43082B01D1ED
:100DB00042F0400240F824200020F0BD8000F0FF07
:100DC00070B5521C50F8223003F04043D1E9004581
:100DD00044EA05148D688E892D0245EA06452C43A8
:100DE0000D8A6D1E44EA05550C7D8969A41E45EAED
:100DF00004640C431C4340F82240002070BD0000F6
:100E00002DE9F04F2DED0A8B93B00DF0BDFCFD4D9B
:100E1000002028709FEDFC8B9FEDFD9B0DF13408A9
:100E20009FEDFDBBFE4EDFF8FC9306F118079FED2A
:100E3000FEAAFB482C78903850F82400FFF73CFCC1
:100E400053EC182BFFF757FB53EC192BFFF753FB11
:100E5000FFF784FC0AEE900A08EB840BCBED00AAA6
:100E6000EF48783850F82400FFF726FC53EC182B95
:100E7000FFF741FB53EC192BFFF73DFBFFF76EFC2F
:100E80000CEE100A07A800EB840A8AED00CAE448B9
:100E9000603850F82400FFF70FFC53EC182BFFF7D5
:100EA0002AFB53EC192BFFF726FBFFF757FC00EE4C
:100EB000100A01A800EB840080ED000AD8494839E7
:100EC00001EB8401D1ED000A7AEEE00ACBED000AD5
:100ED000D349303901EB840191ED001A3CEE411AFF
:100EE0008AED001ACE49183901EB840191ED001A00
:100EF00030EE410A80ED000A10EE900AFFF702FC86
:100F000041EC100B02F036F853EC1B2B51EC100B9C
:100F1000FFF70CFC09D2287808EB800106EB800073
:100F200091ED000A80ED000A1AE0287808EB8001B4
:100F300091ED000A10EE101A494506D930EE0A0A62
:100F400006EB800080ED000A0AE010EE101AB74AA6
:100F5000914205DD30EE4A0A06EB800080ED000A82
:100F6000287807AC54F82000FFF7CCFB41EC100BBD
:100F700002F000F8B0EE4BCAF0EE6BCA53EC1C2B3B
:100F800051EC100BFFF7D2FB09D2287804EB80015B
:100F900007EB800091ED000A80ED000A1AE0287846
:100FA00004EB800191ED000A10EE101A494506D9B4
:100FB00030EE0A0A07EB800080ED000A0AE010EE2E
:100FC000101A9A4A914205DD30EE4A0A07EB80007A
:100FD00080ED000A287801AC54F82000FFF792FB5E
:100FE00041EC100B01F0C6FF53EC1C2B51EC100B25
:100FF000FFF79CFB0BD2287804EB800191ED000AEF
:101000008749303101EB800080ED000A1EE028782E
:1010100004EB800191ED000A10EE101A494508D941
:101020007F4930EE0A0A303101EB800080ED000A82
:101030000CE010EE101A7D4A914207DD784930EE3F
:101040004A0A303101EB800080ED000A287806EB77
:10105000800191ED000A10EE102A4A4503D930EEC6
:101060000A0A81ED000A91ED000A704A10EE103A6A
:10107000934205DDDFED6E0A30EE200A81ED000AB5
:1010800007EB800191ED000A10EE103A4B4503D9B1
:1010900030EE0A0A81ED000A91ED000A10EE103AD6
:1010A000934205DDDFED620A30EE200A81ED000A91
:1010B0005B49303101EB800191ED000A10EE103AEE
:1010C0004B4503D930EE0A0A81ED000A91ED000A82
:1010D00010EE103A934205DDDFED550A30EE200A9E
:1010E00081ED000A401CC0B228700628FFF4A1AEB2
:1010F0004B4896ED000A483080ED000A96ED010A53
:1011000080ED010A96ED020A80ED020A96ED030ACF
:1011100080ED030A96ED040A80ED040A96ED050AB7
:1011200080ED050A97ED000A80ED060A97ED010AA9
:1011300080ED070A97ED020A80ED080A97ED030A91
:1011400080ED090A97ED040A80ED0A0A97ED050A79
:1011500080ED0B0AA0F1180191ED000A80ED0C0A58
:1011600091ED010A80ED0D0A91ED020A80ED0E0A63
:1011700091ED030A80ED0F0A91ED040A80ED100A4B
:1011800091ED050A80ED110A2AA001F0BFFE30683A
:10119000FFF7B8FA41EC100B27A053EC102B01F02D
:1011A000B5FE7068FFF7AEFA41EC100B28A053ECC7
:1011B000102B01F0ABFEB068FFF7A4FA41EC100B66
:1011C00029A053EC102B01F0A1FEF068FFF79AFA6A
:1011D00041EC100B2AA053EC102B01F097FE306964
:1011E000FFF790FA41EC100B2BA053EC102B01F001
:1011F0008DFE7069FFF786FA41EC100B53EC102B53
:1012000056E000004C000020000000000080464036
:10121000000000000000603F000000000080664009
:10122000D0050020000034C30000B4430000344364
:101230000000B4C30A0D0000696E64657820616E19
:10124000676C652031203A2025302E32660A000076
:10125000696E64657820616E676C652032203A2083
:1012600025302E32660A0000696E64657820616E52
:10127000676C652033203A2025302E32660A000044
:10128000696E64657820616E676C652034203A2051
:1012900025302E32660A0000696E64657820616E22
:1012A000676C652035203A2025302E32660A000012
:1012B00013B003A0BDEC0A8BBDE8F04F01F026BED1
:1012C000696E64657820616E676C652036203A200F
:1012D00025302E32660A00002DE9F05F2DED048BDB
:1012E0000DF052FA254D00202870254E9FED258BDC
:1012F0009FED269B06F1480706F1180806F16009E4
:1013000006F1300A06F1780B2C7856F82400FFF726
:10131000D3F953EC182BFFF7EEF853EC192BFFF72A
:10132000EAF8FFF71BFA47F8240058F82400FFF703
:10133000C3F953EC182BFFF7DEF853EC192BFFF72A
:10134000DAF8FFF70BFA49F824005AF82400FFF7FF
:10135000B3F953EC182BFFF7CEF853EC192BFFF72A
:10136000CAF8FFF7FBF94BF82400641CE0B22870C0
:101370000628C9D3BDEC048BBDE8F09F4C000020CB
:1013800040050020000000000080464000000000F2
:101390000000603F2DE9F0410446A76D00F05CFDC0
:1013A000054694F835000026022806D080206065A6
:1013B00084F834600120BDE8F0812068016821F0E4
:1013C000160101602068416921F080014161206CB3
:1013D00008B9A06C20B12068016821F00801016003
:1013E0002068016821F0010101600BE000F034FD8C
:1013F000401B052806D920203434206226700320A3
:101400006070D8E720680068C007EFD134343F200F
:1014100094F828108840B860267001206070002081
:10142000C9E790F83510022903D0802141650120D9
:101430007047052180F835100068016821F001012E
:10144000016000207047000070B5044600F004FD04
:101450000546601C02D004480078044400F0FCFCFF
:10146000401BA042FAD370BD28000020F0B5002434
:1014700090F84550012D09D0012780F845700225CC
:1014800080F84450816244F2F45C19E00220F0BD1F
:1014900001EB44154FF000462E60C5F804C0C4EBC4
:1014A000C41606EB460602EB8606AE6086695E1E33
:1014B000B44203D205F12006EE6000E0E960641C4E
:1014C0009C42E5D3026802F58052D16080F84470F6
:1014D000002180F845100020F0BD2DE9F0430025E3
:1014E00090F84540012C0BD04FF0010C80F845C01E
:1014F000022480F84440C1624FF480185F1E1CE053
:101500000220BDE8F08301EB4514C4F80080C5EB70
:10151000C51606EB460602EB8606A660C66926B926
:10152000266846F44009C4F80090BD4203D204F195
:101530002006E66000E0E1606D1C9D42E3D3026896
:1015400002F58052116180F844C0002180F84510F6
:101550000020D6E710B590F84510012913D00123DB
:1015600080F84530022180F84410816A0A6800241E
:10157000002A29DB0A68D20518D5826B521C8263C7
:10158000012A02D002E0022010BD01632830C160B0
:101590000A68C2F30D42121F42618268926882613A
:1015A000C968016003774477002010BD0A6892057E
:1015B00005D5016344638363C968816204E0826B7B
:1015C000521C8263C968816200F8443F4470012064
:1015D00010BD00002DE9FC47044600270197B846DE
:1015E000002C03D094F8440018B107E00120BDE8B6
:1015F000FC8784F84570204600F006F978480168B9
:1016000041F480410160006800F48040009075481A
:10161000016821F4000101600168226A1143016040
:10162000206800F58050016841F00101016000F080
:1016300013FC05464FF4FA7609E000F00DFC401B60
:10164000B04204D9032004F8440F6770CFE7206844
:1016500000F580500068C007EFD12068006920F0D5
:101660001C0500F029FD6049604A0144914202D204
:1016700045F0080516E05E495E4A0144914202D2F7
:1016800045F00C050EE05C495C4A0144914209D3E7
:101690005B4908445B49884202D245F0040501E0F9
:1016A00045F01005206805614FF4004200212046F6
:1016B00000F090FA012538B101212046FFF72AFAFF
:1016C00084F84450012092E7FF20FFF7BDFE6068D8
:1016D000E8B300F0C1FB814641F2883601AA01213E
:1016E000204600F069F900F0B7FBA0EB0900B0421A
:1016F00008D901212046FFF70DFA04F8445F67700E
:10170000032074E701984007E8D54FF48052002188
:10171000204600F05FFA38B101212046FFF7FAF9C0
:1017200084F84450012062E700F096FB814601AA4C
:101730000121204600F040F900F08EFBA0EB0900EB
:10174000B0420AD901212046FFF7E4F900E027E082
:1017500004F8445F6770032049E701988006E6D5E6
:1017600001AA1121204600F027F938B101212046B5
:10177000FFF7D0F984F84450012038E7019881043C
:1017800003D54FF40061E16000E0E76044F210012E
:10179000814303D04FF48040A06019E0A76017E0B8
:1017A000E0680021C0F3CF02A068C0F34F000243FD
:1017B000204600F00FFA38B101212046FFF7AAF9C0
:1017C00084F84450012012E740F6FF70FFF73CFE1A
:1017D00041462046FFF79EF984F84450002006E772
:1017E000443802400438014000D3CEFEC0E1E4009A
:1017F00040F1E9FD40787D0100796CFC005A6202FD
:10180000001F0AFA80F0FA02F0B587B0002565489B
:10181000016841F001010160016801F001010191DD
:10182000016841F001010160016801F001010191CD
:10183000016841F001010160016801F001010191BD
:10184000016841F004010160016801F004010191A7
:10185000016841F004010160016801F00401019197
:10186000016841F004010160016801F00401019187
:10187000016841F040010160016801F040010191FF
:10188000016841F040010160016801F040010191EF
:10189000016841F040010160016801F040010191DF
:1018A000016841F480710160016801F48071019167
:1018B000016841F000710160016801F0007101915F
:1018C000016841F080610160016801F0806101916F
:1018D000016841F000610160006800F00060019063
:1018E0000224029403940495032605960B20069087
:1018F0002D4F02A9384600F0ABF90421029102A94C
:10190000384600F0A5F98021029102A9384600F07E
:101910009FF90294254C02A9204600F099F9102164
:10192000029102A9204600F093F92021029102A918
:10193000204600F08DF9E01402901D4C02A92046CB
:1019400000F086F94FF40051029102A9204600F000
:101950007FF94FF48041029102A9204600F078F906
:10196000082002900120039004950596114C02A9CD
:10197000204600F06DF900220821204600F05FFAB1
:10198000322001F073FF01220821204600F057FAAF
:10199000002206213D2000F0B7FA3D2000F0A7FA12
:1019A00007B0F0BD3038024000000240000802409D
:1019B00000180240000C02402DE9F0470446914611
:1019C00094F8440082281DD0822084F844002068C6
:1019D000026902F01C03228A4FF6FF7505EAC22253
:1019E0001A434FF4F86303EA8111114321F0020115
:1019F00041F00105056100F02FFA064601274FF47A
:101A000080380FE00220BDE8F08700F025FA801B47
:101A1000404505D304F8447F002060700320F2E7BE
:101A200020680569E807F0D12068406980B2C9F8EC
:101A3000000084F844700020E5E770B5044694F88F
:101A40004500012819D0012584F84550022084F86A
:101A500044002046FFF759F92046FFF734F92046A5
:101A6000FFF716F82046FEF7F8FF2046FEF7E5FFE1
:101A700004F8445F0020607070BD022070BD70B536
:101A8000044694F84500012819D0012584F84550F2
:101A9000022084F844002046FEF7D7FF2046FEF7D8
:101AA000C4FF2046FFF7FEF82046FEF7F1FF204670
:101AB000FFF71AF904F8445F0020607070BD02203F
:101AC00070BDF0B5002390F84520012A11D0012700
:101AD00080F84570022280F84420002659B1C46A7B
:101AE0002268002A0CDA122100F8441F46700120F7
:101AF000F0BD0220F0BD00F8447F46700120F0BD2B
:101B000040F2F455A9420AD9B1FBF5F2B1FBF5FC5C
:101B100005FB1C1CBCF1000F02D0521C00E001228E
:101B2000012A44D1226842F040522260C26AC1F3C5
:101B30000C015160C16A0A6842F000420A60C16A41
:101B4000C968C16235E0C46AD4F800C02CF0405CBA
:101B5000C4F800C033B9C46AD4F800C04CF0805C4B
:101B6000C4F800C0C46A6560541EA34214D1C46A9C
:101B7000D4F800C04CF0005CC4F800C0C2F101040D
:101B8000C4EBC41404EB440401EB8404D0F82CC06F
:101B9000C4F30C04CCF80440C46AD4F800C04CF080
:101BA000004CC4F800C0C46AE468C4625B1C934281
:101BB000C9D3016801F580514A69520705D504224D
:101BC0004A61016801F580514E6000F8447F46701B
:101BD0000020F0BD2DE9F041044694F8440042286D
:101BE00020D0422084F844002068036903F01C03DD
:101BF000258A4FF6FF7606EAC5251D434FF4F863A4
:101C000003EA8111294341F0020141F0010591B23B
:101C100041612068056100F01FF9064601274FF475
:101C200080380FE00220BDE8F08100F015F9801B3C
:101C3000404505D304F8447F002060700320F2E79C
:101C400020680569E807F0D184F84470EBE70000EC
:101C50002DE9F84F0022DFF89C914FF0010809F1BF
:101C6000040A03274FF00F0C0AF1040B08FA02F5DF
:101C70000B682B40AB4272D10C7904F00304012CA9
:101C800001D0022C15D18668540007FA04FE26EA1A
:101C90000E06D1F80CE00EFA04FE4EEA060EC0F86D
:101CA00008E04468AC430D79C5F300159540254321
:101CB00045600C79E443A40708D0C568540007FACE
:101CC00004F6B5438E68A6402E43C6600C7904F036
:101CD0000304022C11D1D40800EB8406356A5407A2
:101CE000E40E0CFA04FE25EA0E05D1F810E00EFA17
:101CF00004FE4EEA050EC6F820E00568540007FA17
:101D000004F6B5430E7906F00306A6402E4306609E
:101D10004C68E40067D5384C256845F4804525605B
:101D2000246804F480440094344C22F003052E19F6
:101D3000D6F8085894074FEA147E0CFA0EF4A5431F
:101D40002F4CA04201D1002424E02E4CA04201D10E
:101D500001241FE02C4CA04202D102241AE042E0F0
:101D60002A4CA04201D1032414E0294CA04201D105
:101D700004240FE0274CA04201D105240AE0264CA0
:101D8000A04201D1062405E0244CA04201D1072441
:101D900000E0082404FA0EF42C43C6F80848D9F8E9
:101DA00000409C434D68ED0300D51C43C9F800403A
:101DB000DAF800409C434D68AD0300D51C43CAF8D7
:101DC0000040DBF800409C434D68ED0200D51C4309
:101DD000CBF80040074D0C352C689C434E68B6028A
:101DE00000D51C432C60521C102AFFF43FAFBDE805
:101DF000F88F0000003C01404438024000300140B0
:101E0000000002400004024000080240000C0240B2
:101E1000001002400014024000180240001C024062
:101E20000069084201D001207047002070474269D4
:101E300021EA02030A4043EA024181617047002A15
:101E400001D08161704709048161704701480068D1
:101E5000000C7047002004E00148806870470000D3
:101E60002800002002488168027811448160704790
:101E70002800002010B50B48016841F40071016092
:101E8000016841F480610160016841F48071016082
:101E9000032000F059F80F2000F006F800F026F8B3
:101EA000002010BD003C024070B504460D4D4FF4BB
:101EB0007A712878B1FBF0F00B490968B1FBF0F0BA
:101EC00000F0A8FB08B1012070BD102C07D2002241
:101ED0002146501E00F018F86C60002070BD0120F3
:101EE00070BD00002800002000000020704700287E
:101EF00009DB00F01F02012191404009800000F140
:101F0000E020C0F800117047F0B40D460D4B1B687F
:101F1000C3F30223C3F10704042C00D90424191DC0
:101F2000072901D2002300E0DB1E012606FA04F196
:101F3000491E294099409E40761E16403143F0BC10
:101F400001F008B80CED00E000F00701054A106848
:101F50004FF6FF03184040EA012003490843106090
:101F6000704700000CED00E00000FA052DE9F04795
:101F700004460D46002C13D0DFF82891D9F8000054
:101F8000EFB200F00700A8420CD289F80070D9F82F
:101F9000000000F00700A84204D00120BDE8F0874F
:101FA0000120FBE72068404E810712D5400703D58A
:101FB000306840F4E05030602078000703D5306886
:101FC00040F4604030603068A16820F0F0000843C1
:101FD00030602078C00731D0334960680839012863
:101FE00008D002280BD0032809D0096889070BD430
:101FF0000120D3E70968890306D40120CEE70968E8
:10200000890101D40120C9E7316821F003010143AE
:102010003160FFF721FF804641F2883A07E0FFF781
:102020001BFFA0EB0800504501D90320B6E730683C
:10203000616800F00C00B0EB810FF0D1D9F800001E
:1020400000F00700A84209D989F80070D9F800000B
:1020500000F00700A84201D001209FE72078400748
:1020600005D53068E16820F4E050084330602078FE
:10207000000706D53068216920F4604040EAC100BD
:10208000306000F03FF83168084AC1F30311515C39
:10209000C8400749086007480068FFF705FF0020AF
:1020A0007CE70000003C024008380240DC75010873
:1020B000000000202C00002001480068704700004C
:1020C0000000002000B5FFF7F7FF04490968044A43
:1020D000C1F38221515CC84000BD000008380240B5
:1020E000EC75010800B5FFF7E7FF04490968044AE9
:1020F000C1F34231515CC84000BD000008380240C5
:10210000EC75010810B51748006810F00C0116486E
:1021100016D04310042912D0082911D1114C241FC4
:10212000216801F03F02216849020AD52068C0F306
:102130008810A0FB03010023FEF7ACF809E0184665
:1021400010BD21680023C1F38811A1FB0001FEF737
:10215000A1F82168C1F30141491C4900B0FBF1F02D
:1021600010BD0000083802400024F4002DE9F84FAB
:102170000446002C13D02078DFF8A083C007A8F114
:10218000040556D008F104000168C1F3810101295A
:102190000CD00068C0F38100022803D00DE00120BC
:1021A000BDE8F88FD8F80000400206D52868800303
:1021B0003FD5606870BB0120F2E76068B0F5803FF2
:1021C00010D0B0F5A02F12D0286820F480302860FD
:1021D000286820F4802028606068E0B1FFF73CFEAA
:1021E000064614E0286840F480302860F4E7286848
:1021F00040F480202860286840F480302860EBE7B5
:10220000FFF72AFE801B642801D90320C8E728684D
:102210008003F5D50DE0FFF71FFE064606E0FFF749
:102220001BFE801B642801D90320B9E728688003BE
:10223000F5D42078BA4F80074FF0000948D5B74849
:10224000001D016811F00C0F08D00068C0F3810078
:10225000022813D1D8F8000040020FD42868800764
:1022600004D5E068012801D0012099E72868216998
:1022700020F0F80040EAC100286029E0E068B8B129
:1022800001203860FFF7E8FD064606E0FFF7E4FDB1
:10229000801B022801D9032082E728688007F5D532
:1022A0002868216920F0F80040EAC10028600FE0AA
:1022B000C7F80090FFF7D0FD064606E0FFF7CCFD1B
:1022C000801B022801D903206AE728688007F5D41B
:1022D0002078000729D5DFF844A2924861690AF105
:1022E000700A89B101210160FFF7B6FD064606E0DC
:1022F000FFF7B2FD801B022801D9032050E7DAF86E
:1023000000008007F4D510E0C0F80090FFF7A4FDAE
:10231000064606E0FFF7A0FD801B022801D9032036
:102320003EE7DAF800008007F4D42078400778D53B
:102330004FF0000A79483C300068C0000BD4774861
:102340003C30016841F080510160006800F080502D
:1023500000904FF0010ADFF8D0B1DBF80000C005B3
:1023600014D4DBF8000040F48070CBF80000FFF7D5
:1023700073FD064606E0FFF76FFD801B022801D9BA
:1023800003200DE7DBF80000C005F4D5634EA0681C
:102390006C3601280FD0052812D0306820F00100DB
:1023A0003060306820F004003060A068F8B1FFF7BA
:1023B00053FD834617E0306840F001003060F4E7D9
:1023C000306840F004003060306840F00100306058
:1023D000EBE7FFF741FDA0EB0B0141F288308142B2
:1023E00001D90320DCE630688007F2D510E0FFF762
:1023F00033FD834609E0FFF72FFDA0EB0B0141F20F
:102400008830814201D90320CAE630688007F2D4BF
:10241000BAF1010F05D141483C30016821F08051EB
:102420000160A069C0B33D49091D09684FF0FF363E
:10243000C1F38101022946D0022805D0C7F8609077
:10244000FFF70AFD04463AE0C7F86090FFF704FD85
:10245000814607E0FFF700FDA0EB0900022801D943
:1024600003209DE628688001F4D4D4E907010843DD
:10247000616AA26A890106EB520241EA02410843FD
:1024800094F82C1040EA0160C8F80000012038667A
:10249000FFF7E2FC044607E03DE0FFF7DDFC001B30
:1024A000022801D903207BE628688001F5D532E0B7
:1024B000FFF7D2FC001B022801D9032070E6286830
:1024C0008001F5D427E0012823D0D8F80000E26984
:1024D00000F4800191421AD1226A00F03F0191423A
:1024E00015D147F6C071626A0140B1EB821F0ED16F
:1024F000A26A00F4403106EB5202B1EB024F06D162
:1025000094F82C1000F07060B0EB016F03D0012044
:1025100046E6012044E6002042E60000043802407E
:1025200000004742800E47420070004070B50446EC
:102530000E461546002C03D094F8490010B107E070
:10254000012070BD002084F84800204600F01AF8F1
:1025500004F108012068FEF709FC3146A2682068F2
:10256000FEF72EFCD4E901022946236BFEF7DEFBC1
:10257000A168206850F8212042F0010240F8212093
:10258000002070BD00B587B01848016841F0010116
:102590000160006800F001000190144808380168EB
:1025A00041F008010160016801F008010191016832
:1025B00041F010010160006800F0100001904CF241
:1025C00003700290022003900121049105900C20D9
:1025D000069002A90648FFF73BFB4FF68070029079
:1025E00002A90448FFF734FB07B000BD38380240A9
:1025F000000C0240001002404FF0E021042804D0FB
:10260000086920F0040008617047086940F0040080
:102610000861704710B5401EB0F1807F01D30120E2
:1026200010BD4FF0E02460610F21601700F092FCB4
:102630000020A06107202061002010BD10B50446D5
:10264000002C03D094F83D0010B107E0012010BD2C
:10265000002084F83C00204600F015F8022084F8A1
:102660003D00211D206800F089FA01203D34607290
:102670006070A070E07020716071A071E0712072D4
:102680002070002010BD704790F83D10012901D046
:1026900001207047022180F83D100168CA6842F0AD
:1026A0000102CA6000681449884214D0B0F1804F1A
:1026B00011D0124988420ED0114988420BD01149DD
:1026C000884208D01049884205D01049884202D07B
:1026D0000F49884209D1816801F00701062908D015
:1026E000016841F00101016003E0016841F001016E
:1026F000016000207047000000000140000400401D
:1027000000080040000C004000040140004001406F
:102710000018004070477047F8B5044622681068FA
:10272000D168536900F00F05002D08D1860606D543
:102730008E0604D52046BDE8F84000F0B2BA002667
:10274000002D60D003F0010501F490772F435AD09B
:10275000C20705D0CA0503D5226C42F001022264EB
:10276000420705D5DA0703D0226C42F00202226448
:10277000820705D5DA0703D0226C42F004022264F6
:10278000020707D501F020022A4303D0226C42F051
:1027900008022264226C002A2BD0800604D5880609
:1027A00002D5204600F07DFA20684069C0F3801011
:1027B000216C090700D408B3204600F04DFA2068C8
:1027C0004169490616D5416921F040014161A06B7C
:1027D00060B144490165A06BFEF723FE002808D0D4
:1027E000A06B016D01B0BDE8F04008472046FFF73F
:1027F00092FFF8BD2046FFF78EFFF8BD2046FFF799
:102800008AFF2664F8BD236B012B58D1C30656D529
:10281000CB0654D510685068009050694FF02003E3
:1028200040062ED5A16B0868406880B20028E9D028
:10283000A58D8542E6D9E085C869B0F5807F18D0BE
:10284000D06820F48070D0602068416921F00101D7
:1028500041612068416921F04001416184F83E30C6
:1028600026632068C16821F01001C160A06BFEF7EB
:1028700091FDA08DE18D401A81B22046FFF74AFFFD
:10288000F8BDA08DE18D401A81B2E08D0028F7D00F
:102890000029F5D0D06820F49070D060206842699B
:1028A00022F00102426184F83E3026632068C2684B
:1028B00022F01002C2602046FFF72CFFF8BD02068E
:1028C00006D50A0604D52046BDE8F84000F0E7BA70
:1028D0004006F3D54806F1D52046BDE8F84000F0A3
:1028E000D3B90000492C000870B50446002C04D070
:1028F00094F83D00002510B106E0012070BD84F879
:102900003C50204600F022F8242084F83D00206846
:10291000C16821F40051C160204600F01BFA206814
:10292000016921F4904101612068416921F02A0187
:1029300041612068C16841F40051C16025642020D4
:1029400084F83D0084F83E00002070BD30B587B0AB
:1029500000681F49884238D11E48016841F01001C3
:102960000160006800F0100001901A4814380168F6
:1029700041F001010160016801F00101019101686C
:1029800041F001010160006800F0010001904FF486
:102990000070029002200390012104910590072409
:1029A00006940D4D02A92846FFF752F92915029108
:1029B000069402A92846FFF74BF92520FFF797FA5E
:1029C000032211462520FFF79FFA07B030BD000013
:1029D00000100140443802400000024090F83E30B0
:1029E000202B01D00220704759B152B190F83C30F1
:1029F000012B08D0012380F83C300023036300F052
:102A000033BA0120704702207047000030B40068DC
:102A10001649884228D1164A5088010419D4114613
:102A2000440409784FF0000307D50A2901D05380E8
:102A30000FE040F4004050800BE00D2910D00D4D08
:102A4000C0F30D042955401C80B25080C72800D91E
:102A500053800848012230BC0549C830FFF7BEBF8B
:102A600040F480405080F4E730BC704700100140D3
:102A7000200000203C0300207047FEE7FEE770477F
:102A80002DE9F04186B000252248016841F002019D
:102A90000160016801F002010091016841F0040148
:102AA0000160006800F00400009043F268000190AB
:102AB0000126029602240494174F01A93846FFF715
:102AC000C7F8042001900295049401A93846FFF745
:102AD000BFF8019602950494DFF8408001A94046B2
:102AE000FFF7B6F8402001900295049401A94046F2
:102AF000FFF7AEF80C2001900296049401A940461D
:102B0000FFF7A6F8002240213846FFF798F906B0F3
:102B1000BDE8F08130380240000402400008024065
:102B200010B5FFF79FF914F053FA012803D0BDE860
:102B3000104013F0A3BD10BD0248016841F47001BC
:102B40000160704788ED00E010B50A4C2068C0684D
:102B5000C043C00709D108480069804721680020A8
:102B6000486221686420C862E06021686FF001005B
:102B7000086110BD60060020A40000202DE9F0418E
:102B80000268264D264E274FDFF89CC0274B4FF09A
:102B90008048A84209D0404507D0B04205D0B8428D
:102BA00003D0604501D0984203D122F070044A68F6
:102BB0002243A8421BD0404519D0B04217D0B8429A
:102BC00015D0604513D0984211D0194CA0420ED0B8
:102BD000184CA0420BD0184CA04208D0174CA04271
:102BE00005D0174CA04202D0164CA04203D122F4CB
:102BF0004074CA6822434C6922F08002224302607A
:102C00008A68C2620A688262A84201D0984201D1F1
:102C10000969016301214161BDE8F08100000140C3
:102C20000004004000080040000C00400004014087
:102C300000400140004401400048014000180040AD
:102C4000001C00400020004010B5806B0021C185B1
:102C5000C184FFF760FD10BD0168CA6822F490725C
:102C6000CA6001684A6922F001024A61016B0129C8
:102C700004D10168CA6822F01002CA60202180F8DD
:102C80003E1000210163704710B50168CA6822F048
:102C90004002CA60202180F83D10FFF7EDFE0020C1
:102CA00010BD10B5044694F83E00222801D0022041
:102CB00010BDA1684FF48052914201D1206920B12A
:102CC000A06A91421DD051B10BE0A06A2168496809
:102CD000C1F308010180A06A801CA06209E021699B
:102CE00079B12168496801F07F010170A06A401C38
:102CF000A062E08D401E0004000CE08505D000209D
:102D000010BD216849680170F0E72068C16821F0B2
:102D10002001C1602068C16821F48071C160206811
:102D2000416921F001014161202084F83E00206BBF
:102D3000012805D02046FFF769FE0020206310BD62
:102D40002068C16821F01001C160A18D2046FFF705
:102D5000E1FCF2E72DE9F041044620680169E268F0
:102D600021F4405111430161A1682069E2690143E6
:102D70006069104301432068C26849F20C639A43BA
:102D80000A43C26020684169A26921F4407111437D
:102D9000416133492068884202D03249884202D1D9
:102DA000FFF7A0F901E0FFF78DF9E169002319278A
:102DB00064253226B1F5004F28D061688B0F8A0058
:102DC000A0FB0701FDF766FA0146B0FBF5F07A4279
:102DD000504301EB800006EB0010B0FBF5F000F073
:102DE000F002B1FBF5F002EB0012B1FBF5F07B4213
:102DF000584301EB800006EB0010B0FBF5F02168B2
:102E000000F00F0010448860BDE8F08161684A1846
:102E1000A0FB07015B41FDF73DFA0146B0FBF5F071
:102E20000201B1FBF5F06FF01803584301EB80008D
:102E300006EBC000B0FBF5F000F0F80002EB40023A
:102E4000B1FBF5F0584301EB800006EBC000B0FB8E
:102E5000F5F0216800F0070010448860D4E7000016
:102E6000001001400014014081628285C28500216A
:102E70000164222280F83E2080F83C100168CA6874
:102E800042F48072CA6001684A6942F001024A61F4
:102E90000068C16841F02001C1600020704790F8CF
:102EA0003D10212901D0022070478168B1F5805F73
:102EB00001D1016961B1016A4A1C026202680978A4
:102EC0005160C18C491E0904090CC1840AD013E069
:102ED000016A02680988C1F308015160016A891C0E
:102EE0000162EEE70168CA6822F08002CA600068E9
:102EF000C16841F04001C160002070470148FFF700
:102F00000BBC000004040020FEE700000FB4054BDA
:102F100010B503A9044A029800F008F910BC5DF846
:102F200014FB00004D5D0008240000200FB4084B86
:102F300010B504A902AA039800F0F8F8044602A903
:102F4000002000F076FC204610BC5DF814FB000069
:102F5000333800080907090E002804DB00F1E020DF
:102F600080F80014704700F00F0000F1E02080F8B6
:102F7000141D70472DED020B019820F000400190C8
:102F80009DED000B02B0704702E008C8121F08C197
:102F9000002AFAD170477047002001E001C1121FDA
:102FA000002AFBD1704700002DE9FF5F82B00021AD
:102FB000DDE90430020DDDF840B0034318D044F6DB
:102FC0001050A2F2FF3242431514119801281FD06D
:102FD000A5EB0B00401C5FEA000A4FF000064E4FC5
:102FE000DFF83891B046504615D5CAF1000413E019
:102FF000119801244AA3012801D16FEA0B0102981C
:10300000119AC0E90031C0E9024206B0BDE8F09F64
:10301000CBF10000DFE704460021404A491842EBAB
:103020000450CDE9001012E0E00707D032463B46DD
:1030300040464946FDF75FFA8046894632463B46A0
:1030400010461946FDF757FA06460F466410002C45
:10305000EAD1DDE90401DDE90023BAF1000F06DA67
:10306000FDF749FA42464B46FDF745FA05E0FDF704
:10307000B4FA42464B46FDF7B0FA04460E4600222B
:10308000284BFDF77BFC03D84FF0FF30014607E0EB
:103090000022254B20463146FDF786F9FDF755FC09
:1030A000102409E0002C0ADB0A220023FDF7F2F8C5
:1030B000039B30321A55641E50EA0102F2D1641C9F
:1030C000039AC4F111031444119A012A03D0012276
:1030D00008430DD10AE0084304D000204FF0110B43
:1030E000119072E7A3EB0B056D1E0DE05B4504DD4F
:1030F0004FF0000205F1010504E003DA4FF0000291
:10310000A5F10105002AECD002981199C0E902311D
:10311000C0E9004579E70000000014400000F03FDE
:10312000300000000000F0430000E03F2DE9FF4FB9
:1031300095B09A46884606460025EEE1252877D1C7
:1031400000242746F94A0121039400E0044316F8BD
:10315000013F203B01FA03F01042F7D130782A28D2
:1031600011D06FF02F033078A0F13002092A16D861
:10317000039A44F0020402EB820203EB4202104481
:10318000761C0390EFE758F8042B0392002A03DA29
:10319000504244F40054039044F00204761C30780A
:1031A0002E2816D116F8010F44F004042A280DD059
:1031B0006FF02F023078A0F13003092B09D807EB0C
:1031C000870302EB4303C718761CF3E758F8047B28
:1031D000761C30786C280FD006DC4C2817D0682875
:1031E0000DD06A2814D104E0742810D07A280FD1A9
:1031F0000DE044F400140AE044F4801401E044F4C7
:1032000040147278824202D104F58014761C761C38
:10321000307866280BD013DC582877D009DC0028DA
:1032200075D04528F6D04628F4D047281AD193E126
:1032300018E0632835D0642879D0652812D18BE155
:10324000702873D008DC6728F1D069286FD06E2809
:103250000DD06F2806D1ACE073282CD0752874D01F
:10326000782853D05246179990476D1C54E1C4F307
:103270000250022809D003280DD0D8F800100428E5
:103280000DD00D6008F1040846E1D8F80010EA17E7
:10329000C1E90052F6E7D8F800100D80F2E70D7092
:1032A000F0E718F8041B8DF8001000208DF80100DD
:1032B000EB46012003E058F804BB4FF0FF306107F4
:1032C0004FF0000102D40DE009F101018946B94235
:1032D0000FDA8145F8DB1BF809100029F4D108E06A
:1032E00009F1010189468142FADB1BF80910002926
:1032F000F6D103985346A0EB090721463846179AA2
:1033000000F080FA284400EB090507E044E008E1FA
:103310000DE01BF8010B524617999047B9F10109CE
:10332000F7D2534621463846179AF2E039E00A218F
:10333000C4F302524FF0000B0091022A06D058F855
:10334000040BC117032A09D00AE023E008F10700A3
:1033500020F00702F2E80201904605E000B2C11732
:10336000042A01D140B2C117002906DA0A46002119
:10337000404261EB02012D2202E0220504D52B22FE
:103380008DF80420012203E0E20701D02022F7E7B4
:10339000914657E00A2100E010214FF0000B009108
:1033A0000BE010214FF0000B44F0040408270091BB
:1033B00003E008204FF0000B0090C4F30252022AF1
:1033C00005D058F8040B0021032A08D008E008F1C2
:1033D000070020F00702F2E80201904603E080B205
:1033E000042A00D1C0B24FF0000922072AD5327852
:1033F000702A07D0DDF800C08CF0100C5CEA0B0CD2
:1034000005D00EE040228DF80420012208E050EAA9
:10341000010306D030238DF804308DF805200222F8
:103420009146009B83F0080353EA0B030AD150EA4C
:10343000010201D1620705D530228DF804204FF03A
:1034400001097F1E3278582A04D039A20C920CAAA6
:1034500002920BE03BA2F9E75B46009AFCF71AFFE9
:103460000C9B9B5C029A521E0292137050EA01025E
:10347000F2D1029804A9081A00F1200B600702D5C6
:1034800024F4803400E001275F4502DDA7EB0B0048
:1034900000E0002000EB0B01009003984944401A23
:1034A0000390E00306D453462146179A039800F090
:1034B000A9F90544002706E001A85246C05D179906
:1034C00090476D1C7F1C4F45F6DBE0030CD553463F
:1034D0002146179A039800F095F9054404E030203E
:1034E0005246179990476D1C0099481E009000297C
:1034F000F5DC08E00298029952460078491C0291D6
:10350000179990476D1CBBF10001ABF1010BF1DC89
:103510005BE100F065F90544761C307800287FF403
:103520000DAE19B02846BDE8F08F00000928010053
:103530003031323334353637383961626364656629
:1035400000000000303132333435363738394142EB
:103550004344454600000000600700D4062708F1F8
:10356000070020F00700F0E80223804603F0004C3B
:103570005FEA0C0001D097A009E0200501D596A0D4
:1035800005E0E00701D095A001E0AFF24C001390F8
:10359000307823F0004365280CD006DC452809D09C
:1035A00046281DD047287FD13BE0662818D06728E1
:1035B0007AD136E00021112F01DB112000E0781CC8
:1035C000CDE9000104A90CA8FFF7EEFCDDE90D012F
:1035D0000C9A4FF0000B07F10109109200914EE098
:1035E0004FF000400097CDE9011004A90CA8FFF7A7
:1035F000DBFCDDE90D020C9B0F994FF0000B9146AF
:103600001093009211B9791C00EB0109B7EB090086
:1036100003D4C0F1FF3B07F10109A9EB07000190BA
:1036200042E0012F00DA01270021112F01DD1120D6
:1036300000E03846CDE9000104A90CA8FFF7B4FC6E
:10364000DDE90D010C9A00914FF0000BB946109284
:1036500021070FD4009A4A4503DA914601E0A9F107
:103660000109B9F1010F05DD109AA9F10101515CC1
:103670003029F4D0B84202DA10F1040F03DA012144
:10368000CDE9011010E0002803DC8344A9EB000120
:1036900002E0411C494500DD8946A0EB0B00401CBF
:1036A00001904FF000400290200705D40198484552
:1036B00002DB4FF0FF30019000208DF84B000298A4
:1036C0000DF14B07B0F1004F25D002200C902B20BC
:1036D0000D90029800280CDA404202902D200D90A7
:1036E00007E00A210298FDF755F83031029007F8FB
:1036F000011D0C99481E0C900029F2DC029800284C
:10370000EFD1791E0D980870307800F0200040F05D
:10371000450007F8020D11A8C01BC01D02901398A8
:10372000007800B1012000EB0901019801EBE07184
:10373000029801440398401A401E0390E00306D407
:1037400053462146179A039800F05CF805441398F5
:10375000007818B15246179990476D1CE00323D5A5
:1037600053462146179A039800F04CF805441BE095
:10377000BBF1000F07DB0098584504DD109817993E
:1037800010F80B0001E0179930205246904701983D
:103790000BF1010B401E05F10105019004D12E2013
:1037A0005246179990476D1CB9F10001A9F1010922
:1037B000DEDC05E017F8010B5246179990476D1CA7
:1037C0000299481E02900029F4DC53462146179ABC
:1037D00003989EE62D0000002B0000002000000052
:1037E0002DE9F041044600251E461746880404D4FE
:1037F00005E039462020B0476D1C641EF9D52846E7
:10380000BDE8F0812DE9F041044600251E469046B2
:10381000C80301D5302700E02027880404D505E03F
:1038200041463846B0476D1C641EF9D52846BDE8B0
:10383000F0810A68531C0B601070704710B5044685
:103840000420FEF7D9FE084804604FF47A70444320
:103850004FF0E021086940F0020008614C610869FE
:1038600040F00100086110BD1C00002070B5054645
:1038700000244FF47A7603E0304600F005F8641C2B
:10388000AC42F9D370BD000070B500214FF0E025C7
:103890006C690A4A12685043AB69AA699A42FCD023
:1038A00003D2A3EB0203194403E0A4EB0206334462
:1038B000194413468142F0D370BD00001C00002063
:1038C00000280BD0426A002A0BD05379082B08D16C
:1038D0000968D269914204D100F0C6B901A0FFF78E
:1038E00015BB70476E6574696620213D204E554CAE
:1038F0004C0000002DE9FC410546002D18D06C6AF3
:10390000DCB100276782A36A4FF03C02581C4FF4D9
:1039100080384FF0010C4FF6FF7614D01E33B3FB06
:10392000F2F0404500D3304683B2A3824BB10AE0A7
:1039300028A0FFF7EBFABDE8FC812DA0FFF7E6FA1F
:10394000F9E7A4F814C0E36A581C0CD01E33B3FB8B
:10395000F2F1414500D331468BB263810BB9A4F833
:103960000AC06089E081236B581C0CD01E33B3FB66
:10397000F2F2424500D3324693B2A3810BB9A4F8C8
:103980000CC0A08920826089A389984201D303B129
:103990006781E07910B1206A01900CE0237F7F2BD2
:1039A00002D8FF20019006E0C02B03D36FF07F40C8
:1039B000019000E00196606A00900A21204601F023
:1039C00029F86B4601AA04F11C01284609F0D0F938
:1039D000B1E70000646863705F62696E643A206EEC
:1039E0006574696620213D204E554C4C0000000056
:1039F000646863705F62696E643A20646863702013
:103A0000213D204E554C4C0070B505466C6A08218E
:103A1000204600F0FFFF002204F11C01284601F0BF
:103A200049FEA079FF2801D2401CA0714FF4FA7022
:103A300040F2E731B1FBF0F0208170BD10B51748BE
:103A4000046828E0616A09B34879F8B1888A68B1E6
:103A5000488A401C80B248828A8A904206D1204619
:103A600000F04EFE204600F0DDFF13E0088A18B19A
:103A7000421E0A82012806D0C88938B1421ECA8176
:103A8000012804D006E0204601F058F802E0204664
:103A900001F03FF82468002CD4D110BD240200208E
:103AA0002DE9F04707460C4616469946002F17D0D9
:103AB000002C1BD04FF49A7A4FF4207251463620D6
:103AC00009F066FA80465FEA080014D0B8F80A00E8
:103AD000504502D22EA0FFF719FA032E10D10CE0A8
:103AE0003BA0FFF713FA0020BDE8F08740A0FFF7E6
:103AF0000DFA0020F8E70020F6E76079032807D1E7
:103B0000A079434D10B9FCF7F7FBA860A8682060C6
:103B1000D8F8045051462846FCF727FC01202870AD
:103B2000687097F83000A870206806F0E9FD6860BA
:103B3000082E0AD0042E08D0072E06D0032E06D158
:103B40006079052801D0042801D17868E860002454
:103B50003819291990F82A000877641CA4B2062C99
:103B6000F6D32C48C5F8EC0005F1F001012335220D
:103B70000C46002000F03CFA3246214600F050FA94
:103B8000B9F1000F01D0A9F800004046ACE70000F1
:103B9000646863705F6372656174655F6D73673AD3
:103BA00020636865636B2074686174206669727352
:103BB0007420706275662063616E20686F6C64208B
:103BC00073747275637420646863705F6D736700EB
:103BD000646863705F6372656174655F6D73673A93
:103BE000206E6574696620213D204E554C4C0000C6
:103BF000646863705F6372656174655F6D73673A73
:103C0000206468637020213D204E554C4C0000001C
:103C1000840200206382536310B5094C2078002889
:103C200002D108A0FFF772F92078401EC0B22070C0
:103C3000002804D1E06810F0D1FD0020E06010BD44
:103C400084020020646863705F7063625F726566FF
:103C5000636F756E7428293A20726566636F756E9E
:103C600074206572726F7200FEB50646746A0C218C
:103C7000204600F0CFFE02AB042221463046FFF77B
:103C80000FFF0546280026D069680423F031322250
:103C90000F46BDF8080000F0ABF90290E06906F0AD
:103CA0002FFD02463946BDF8080000F0E3F9029006
:103CB0002A46394600F046FA0F484323CDE9006012
:103CC0000F480E4A2946C06810F0A4FE0646284652
:103CD00009F08CFC01E04FF0FF36A079FF2801D2FB
:103CE000401CA07142F603104FF4FA71B0FBF1F0E2
:103CF00020813046FEBD000038A701083CA701081E
:103D0000840200202DE9FE4F07467D6A4FF000092E
:103D10000020E8610621284600F07CFE02AB01226B
:103D200029463846FFF7BCFE0646300037D071689A
:103D30000223F03139228A46BDF8080000F058F914
:103D400002903A8D514600F0CDF9029004233722BB
:103D5000514600F04DF902900024DFF88080514672
:103D6000BDF8080018F8042000F05AF90290641C0D
:103D7000E4B2042CF3D332465146BDF8080000F0FB
:103D8000E1F917484323CDE900701448154A401E55
:103D90003146C06810F03EFE304609F027FCA87995
:103DA000FF2801D2401CA871A979062902D201205E
:103DB000884000E03C2000EB4001C1EBC0104FF612
:103DC000FF7101EAC00000F2F3104FF4FA71B0FB8A
:103DD000F1F028814846BDE8FE8F000085020020F2
:103DE00038A701083CA7010870B50B4804680025F6
:103DF0000EE0616A59B10889012803D9A0F10100D8
:103E0000088104E003D10D81204600F0AEFE246855
:103E1000002CEED170BD000024020020F8B5446AE9
:103E2000002222626262214EA6F12805F078002865
:103E300001D0E868A062307910B12869E06202E040
:103E4000A06A4008E062707910B16869206304E0FC
:103E5000A06AC0EBC000C00820630869E061B079C7
:103E600030B1A86906F04CFC20620120E07100E04E
:103E7000E271F07918B1E86906F042FC6062002452
:103E80000CE004F1080055F8200006F039FC009021
:103E90006946204601F080F8641CE4B2022C03D28B
:103EA0003019007A0028ECD1F8BD00009864012098
:103EB00010B50446606A0C2100F0ACFD054B2046AD
:103EC0001A46114608F054FF2046BDE81040FFF79F
:103ED00019BF000038A7010870B505460E466C6A88
:103EE0000948807800280ED0002020810648283814
:103EF000806806F005FCA0613069E0612846BDE8F5
:103F0000704000F0C9BC70BD9864012010B5134C1E
:103F1000207800281AD1E06810B111A0FEF7F6FF52
:103F200010F014FCE060B0B1417A41F02001417220
:103F30004422154910F00CFA43221349E06810F0AE
:103F40005BFA00221149E06810F034FC2078401C34
:103F50002070002010BD4FF0FF3010BD8402002003
:103F6000646863705F696E635F7063625F726566E9
:103F7000636F756E7428293A206D656D6F727920B4
:103F80006C65616B0000000038A701080946000855
:103F900070B505466C6A002C1ED061790026042994
:103FA00014D004DC002917D0032904D10EE0052920
:103FB0000CD00A290AD00C2902D908A0FEF7A6FFC6
:103FC000A6712846BDE87040FFF79CBEA671284642
:103FD000BDE8704000F09EBA70BD0000696E766169
:103FE0006C696420646863702D3E7374617465004D
:103FF0002DE9F04104460E4690461F46E019801C0C
:10400000442802D90548FEF781FF601C85B206F8F6
:104010000480681C80B27755BDE8F081D0A9010802
:1040200070B504460E461546442C02D303A0FEF795
:104030006DFF601C80B2355570BD00006468637010
:104040005F6F7074696F6E5F627974653A206F702C
:1040500074696F6E735F6F75745F6C656E203C2062
:10406000444843505F4F5054494F4E535F4C454E68
:104070000000000070B506460D461446301D442869
:1040800002D909A0FEF742FF220E701C81B2AA5588
:10409000220C481C80B26A54220A411C89B22A545C
:1040A000481C80B26C5470BD646863705F6F70743C
:1040B000696F6E5F6C6F6E673A206F7074696F6EB8
:1040C000735F6F75745F6C656E202B2034203C3DF0
:1040D00020444843505F4F5054494F4E535F4C4526
:1040E0004E00000070B504460E461546A01C44283C
:1040F00002D905A0FEF70AFF290A601C83B23155D8
:10410000581C80B2F55470BD646863705F6F707442
:10411000696F6E5F73686F72743A206F7074696F45
:104120006E735F6F75745F6C656E202B2032203C60
:104130003D20444843505F4F5054494F4E535F4CCD
:10414000454E000030B404461046FF25621C93B271
:104150000D55002403E01D465B1C9BB24C55442BBF
:1041600001D39D0701D0442BF5D3F03330BC99B275
:1041700009F0DEBA2DE9F34F85B04FF0000B0020B7
:1041800003900A21A848FCF7F0F8059840892C28EC
:1041900004D26FF0010007B0BDE8F08FF02705985A
:1041A000B0F80890059E049706E0391A8FB2A9EB83
:1041B00000001FFA80F9366816B17089B842F4D948
:1041C00016B1D6F804A0F6E06FF00100E3E74FF077
:1041D000FF34B81C1FFA80F8B84501D26000DAE756
:1041E0007389781C0246834203D90AEB07004078A2
:1041F00005E0306810B14068007800E00020054616
:10420000342949D00BDC032925D003DCC9B10129AD
:104210000DD119E0062926D0332908D134E03529FB
:1042200047D036294CD03A2951D03B2956D00025C9
:1042300079B33844801CB0F5803F58D36FF001004B
:10424000A9E700200546F3E7042802D06FF0050037
:10425000A1E70624ECE70425042802D26FF005004C
:1042600099E70724E4E7830702D06FF0050092E79F
:10427000082801D2054600E00825A84202D26FF0C6
:10428000050088E70824D3E7042803D06FF0050071
:1042900081E72AE00324CBE7012802D06FF0050074
:1042A00079E7049BF02B02D06FF0050073E7002440
:1042B000BEE7012802D06FF005006CE70124B7E7E4
:1042C000042802D06FF0050065E70224B0E7042857
:1042D00002D06FF005005EE70424A9E7042802D0AD
:1042E0006FF0050057E70524A2E797B254E087B2C4
:1042F000BDB3002002900A2C02D34CA0FEF706FEAC
:104300004948005D68BB042D01D2284600E0042026
:104310000190434602A93046019A09F015F801467A
:104320000198814202D06FF0010034E7042D1CD9BE
:10433000A80702D06FF005002DE73B490120085582
:10434000029806F0DDF93849283941F824002D1F7C
:10435000EDB208F1040080B2404503D26FF00100D5
:1043600019E719E08046641CC5E7042D04D0012D2F
:1043700007D06FF005000EE7029806F0C1F9029031
:1043800002E09DF8080002902749012008552648C0
:104390000299283840F824107089B8420BD8391A8D
:1043A0008FB2A9EB00001FFA80F94F451DD2366885
:1043B000C6B1D6F804A036B14F4504D21AF807109A
:1043C000FF297FF404AF184A1078D0B1A2F1280079
:1043D00000680021117001280AD002280BD00328A0
:1043E0000CD00EE06FF00500D5E66FF00100D2E6CC
:1043F0004FF0010B05E00120039002E00120039043
:104400008346BBF1000F05D04FF0000B6C274FF037
:10441000EC09C7E6039828B1002003902C274FF041
:104420006C09BFE60020B6E6986401206368656306
:104430006B206465636F64655F69647800000000E9
:104440002DE9FC478046D8F824500421284600F086
:10445000E1FA01AB032229464046FFF721FB07465C
:10446000380037D079680223F03139228946BDF807
:104470000400FFF7BDFD0190B8F828204946FFF77A
:1044800031FE0190042337224946FFF7B1FD019028
:1044900000241E4E4946BDF80400325DFFF7C0FD02
:1044A0000190641CE4B2042CF4D33A464946BDF8AA
:1044B0000400FFF747FE1548CDF80080401E432357
:1044C000134A3946C06810F037FA0446384609F0F6
:1044D0008DF801E04FF0FF34A879FF2801D2401C8D
:1044E000A871A8790A2803D24FF47A71484301E0F1
:1044F00042F2107080B200F2F3104FF4FA71B0FB88
:10450000F1F028812046BDE8FC87000085020020EC
:104510003CA701082DE9FC478046D8F82450032128
:10452000284600F077FA01AB032229464046FFF700
:10453000B7FA0746380047D079680223F0313922AC
:104540008946BDF80400FFF753FD01904FF4107247
:104550004946FFF7C7FD0190042332224946FFF781
:1045600047FD0190E86906F0CBF802464946BDF8E0
:104570000400FFF77FFD0190042337224946FFF72F
:1045800037FD019000241E4E4946BDF80400325DFF
:10459000FFF746FD0190641CE4B2042CF4D33A46C4
:1045A0004946BDF80400FFF7CDFD1548CDF8008061
:1045B000401E4323134A3946C06810F0BDF9044633
:1045C000384609F013F801E04FF0FF34A879FF28CE
:1045D00001D2401CA871A8790A2803D24FF47A713D
:1045E000484301E042F2107080B200F2F3104FF441
:1045F000FA71B0FBF1F028812046BDE8FC8700008D
:10460000850200203CA701082DE9F04116463A48F2
:1046100045686C6A7168002C69D02079002866D0E2
:1046200070892C2863D30878022860D1002095F87F
:10463000302008E02B180F1893F82A303F7FBB4238
:1046400055D1401CC0B2824201D90628F2D3486835
:1046500006F056F82168884249D121463046FFF7D6
:1046600089FD00BB25484078E8B1726823482838A6
:104670000079052802D0062822D02AE06079012896
:1046800006D0032814D0042812D0052810D02EE01C
:1046900011462846FFF7C2FB95F83100000703D505
:1046A0002846FFF7B1F922E02846FFF723F91EE07C
:1046B00011462846FFF7B2FB2846FFF71BF916E024
:1046C0006179032908D0012906D0042904D00529DD
:1046D00002D0022804D00AE02846FFF7E9FB06E0F2
:1046E0006079062803D111462846FFF7F5FB3046CE
:1046F000BDE8F04108F07ABF807500209864012081
:104700002DE9FE4307467C6A002C56D060790028CC
:1047100053D0A06902900025A561E561256265621C
:104720002563E562A562A58265822582E58138461A
:1047300000F0DEF9B0B30021204600F06BF901ABC8
:10474000072221463846FFF7ABF90646300022D053
:1047500071680423F03136228846BDF80400FFF763
:1047600047FC0190029805F0CBFF02464146BDF898
:104770000400FFF77FFC019032464146FFF7E2FC60
:104780000F480097432302AA3146C06810F0D4F8BE
:10479000304608F02BFF0B4B38461A46114608F0FE
:1047A000E7FA04E0FFE70021204600F033F9207922
:1047B000002802D0FFF730FA2571BDE8FE83000023
:1047C0008402002038A701082DE9FC478046D8F86C
:1047D00024500521284600F01DF901AB032229468B
:1047E0004046FFF75DF90746380038D07968022364
:1047F000F03139228946BDF80400FFF7F9FB01903A
:10480000B8F828204946FFF76DFC019004233722B1
:104810004946FFF7EDFB019000241E4E4946BDF8C6
:104820000400325DFFF7FCFB0190641CE4B2042C31
:10483000F4D33A464946BDF80400FFF783FC154817
:10484000CDF80080401E432305F118023946C068A8
:1048500010F072F80446384608F0C8FE01E04FF048
:10486000FF34A879FF2801D2401CA871A8790A2832
:1048700003D24FF4FA61484301E044F6206080B26D
:1048800000F2F3104FF4FA71B0FBF1F028812046EA
:10489000BDE8FC87850200202DE9FE430646002E78
:1048A00069D0756A002D6DD00121284600F0B2F85C
:1048B00002AB032229463046FFF7F2F880465FEA52
:1048C000080065D0D8F804100223F0313922894657
:1048D000BDF80800FFF78CFB0290328D4946FFF7C8
:1048E00001FC0290042332224946FFF781FB02902B
:1048F000E86905F005FF02464946BDF80800FFF7E4
:10490000B9FB0290042336224946FFF771FB02905F
:10491000A86905F0F5FE02464946BDF80800FFF714
:10492000A9FB0290042337224946FFF761FB02905E
:104930000024274F4946BDF808003A5DFFF770FB99
:104940000290641CE4B2042CF4D342464946BDF8FC
:104950000800FFF7F7FB1F484323CDE900601C4820
:104960001D4A401E4146C06810F054F804464046B7
:1049700008F03CFE0EE019A0FEF7C8FA6FF00F0039
:10498000BDE8FE831CA0FEF7C1FA6FF00500F7E753
:104990004FF0FF34A879FF2801D2401CA871A979F3
:1049A000062902D20120884000E03C2000EB4001B3
:1049B000C1EBC0104FF6FF7101EAC00000F2F31026
:1049C0004FF4FA71B0FBF1F028812046D8E70000DF
:1049D0008502002038A701083CA7010864686370BD
:1049E0005F73656C6563743A206E65746966202137
:1049F0003D204E554C4C0000646863705F73656CDD
:104A00006563743A206468637020213D204E554CE4
:104A10004C00000042798A4203D04171002181712B
:104A20000181704770B505466FF00F04002D0CD062
:104A300095F83100C0070DD06C6A288D4FF0FF3615
:104A4000B0F5107F0BD2304670BD1BA0FEF75EFAAA
:104A5000204670BD1CA0FEF759FA204670BD64B117
:104A6000207908B1FFF7D8F834212046FBF77DFC08
:104A7000FFF74CFA50B1304670BD342007F002F910
:104A800004460CB16C62EFE7304670BD0120207126
:104A900095F83100400705D402212046FFF7BAFF00
:104AA000002070BD2846FFF72DF90028F9D02846D0
:104AB000FFF726FE304670BD6E6574696620213DA5
:104AC000204E554C4C0000006E6574696620697379
:104AD000206E6F742075702C206F6C642073747955
:104AE0006C6520706F72743F00000000FFF708BE15
:104AF00000280CD0406A50B140790A2805D005281A
:104B000003D0042801D00020704701207047002006
:104B1000704710B5446A6179012903D00A2901D090
:104B200005290AD1FFF750FEA089618A401A0228A0
:104B300003DB00EBD0704008E08110BD10B5446A83
:104B40006179012905D00A2903D0052901D004295A
:104B50000AD1FFF775FCA08A618A401A022803DB9C
:104B600000EBD0704008208210BD10B50446616A89
:104B70004A790C2A0FD0062A0DD0012A10D0082A13
:104B80001ED0032A2ED18879022826D22046BDE8DD
:104B90001040FFF7BFBC2046BDE81040FFF7B2B899
:104BA0008879052804D82046BDE81040FFF774BE78
:104BB0002046FFF7A5FD2046BDE81040FFF732BFB5
:104BC0008879012804D82046BDE81040FEF71CBFB4
:104BD0002046BDE81040FEF78DBE2046BDE81040DF
:104BE000FFF790B810BD00000EB51C4DC821002085
:104BF00007F02EFB0446686938B3C8212046FBF74E
:104C0000B4FB4FF0FF322146686911F091FFE0B12B
:104C10004FF6FF704FF4967600904FF4A073324633
:104C200031461E2004F030FE4FF4784010210290EF
:104C3000CDE900140A4841880088E6391E388BB255
:104C400082B231461E2005F00FFA2146002007F0FF
:104C5000F3FA052011F01AFAC8E70000040000205A
:104C60009804002001460020002909D0C97A491C77
:104C7000022905D2034A52F82110002900D0012050
:104C800070470000D00100202DE9F05F07468B46F9
:104C90000025DFF8808007EB0710A8F5886AA94691
:104CA0000AEB001405EB450658F826305BB108EB1B
:104CB0008600017AB94206D1426804F110005946D3
:104CC000984748F826906D1CEDB2042DEAD30021D8
:104CD0000425B9420CD001EB01100AEB0010827AD6
:104CE000022A05D1C07BE27B904201D1E57303E04B
:104CF000491CC9B20429ECD3E07B042808D2064E33
:104D000056F820000FF06AFDE07B46F82090E5732E
:104D1000BDE8F09F507500200071002010B5002400
:104D2000204600F005F8641CE4B2042CF8D310BD52
:104D30002DE9F0410546284905EB051001EB00146B
:104D4000042D02D325A0FEF7E1F8A07A00283AD07E
:104D500000260127012808D0022813D0032834D0C8
:104D6000BDE8F04124A0FEF7D1B800F055F820814D
:104D70000220A072E672277366732846BDE8F041F0
:104D800000F064B8207B401E10F0FF0020731AD1A1
:104D9000607B401CC0B26073042805D02073284695
:104DA000BDE8F04100F052B82046FFF75BFF28B1A4
:104DB000E07A401CE07227736673F0E70021284612
:104DC000FFF762FFA672BDE8F081206810B1401EB7
:104DD0002060F8D1A672F6E710710020617272614E
:104DE0007920696E646578206F7574206F66206223
:104DF0006F756E6473000000756E6B6E6F776E205A
:104E0000646E735F7461626C6520656E7472792084
:104E100073746174653A000010B50A4CFBF76CFAC4
:104E200080B2002101EB011204EB0212937A022BF3
:104E300002D112898242F1D0491CC9B20429F1D3AE
:104E400010BD000010710020704700002DE9FF5FC9
:104E50000446494904EB041001EB0015E87A0228E6
:104E600002D346A0FEF752F8EA7A4A49002651F8E2
:104E7000220048B305F110000446FBF781FA123016
:104E800081B24FF42072362008F082F882465FEA41
:104E90000A006CD0019602960396288905F03CFC26
:104EA000ADF8040001208DF806004FF4807BADF8CA
:104EB00008B00C2201A9504608F000FD641E0C2623
:104EC000641C274600220BE000212046FFF7DCFE91
:104ED000AE72002004B0BDE8F09F521CD2B2641C38
:104EE00020782E2801D00028F7D1E01B1FFA80F986
:104EF00006EB020808F10108B8F5803F05D35046DB
:104F000008F074FB6FF00500E4E73146504608F006
:104F1000FFFB761CB3B24A463946504608F04EFDB8
:104F20001FFA88F620780028CAD100223146504660
:104F300008F0EEFB761CB3B2ADF800B0ADF802B0ED
:104F400004226946504608F039FDE87B3523EA7AA9
:104F5000104901EB82020849103951F820005146EE
:104F60000FF092FC0446504608F040FB01E04FF081
:104F7000FF342046AEE7000010710020646E7320FD
:104F8000736572766572206F7574206F662061722A
:104F900072617900D0010020022805D2054A02EB97
:104FA000800011B109680160704703490968016018
:104FB00070470000D001002038A70108FFF7AEBEFF
:104FC00070B505460C46A00702D007A0FDF79EFF6E
:104FD0000AF0B8FBE96809682160E9680C60BDE87F
:104FE00070400AF0F9BB00006D656D705F66726518
:104FF000653A206D656D2070726F7065726C7920F6
:10500000616C69676E65640070B504460AF09AFBCE
:105010000546E06804685CB121680160A00702D021
:1050200006A0FDF773FF28460AF0D6FB204670BDA8
:1050300028460AF0D1FB002070BD00006D656D7040
:105040005F6D616C6C6F633A206D656D702070727E
:105050006F7065726C7920616C69676E65640000C1
:105060002DE9F04104460F46002C02D138A0FDF78F
:105070004DFF0AF067FB00266660277294F8201047
:1050800041F0010184F82010657866700AF0A4FBF5
:10509000A36A1BB10022042120469847A36A1BB1D2
:1050A0000022114620469847A36A1BB10022022124
:1050B00020469847384606F04FF8804614F1100F06
:1050C00006D0206920B1414604F110000AF0F6FB39
:1050D00014F1140F06D0606920B1414604F11400A8
:1050E0000AF0ECFB012D0BD0042D09D0032D07D0C5
:1050F000606A00282AD0BDE8F04119A0FDF706BF7C
:1051000094F82000C0F3800100F0FB0084F8200038
:1051100000291BD1606A10B918A0FDF7F7FE042D15
:1051200008D0606A0771606A05680C352DB128687F
:1051300018B105E0606A0671F5E717A0FDF7E6FE15
:1051400066622846BDE8F0410AF0F4BCBDE8F08193
:10515000636F6E6E20213D204E554C4C00000000C8
:10516000636F6E6E2D3E63757272656E745F6D73E4
:1051700067203D3D204E554C4C000000636F6E6E25
:105180002D3E63757272656E745F6D736720213D8D
:10519000204E554C4C000000696E61766C696420AD
:1051A0006F705F636F6D706C657465645F73656D60
:1051B0000000000070B505460024084E04EB4400D2
:1051C00006EBC000017D29B18068A84202D12046CB
:1051D00000F0F6F8641C0A2CF0DB70BDA46401201A
:1051E0002DE9F74F84B080464FF00A0AD1460A27CE
:1051F0000024BB460020029001900090494904EB36
:10520000440001EBC0060390357D0A2F00D1CDB1DB
:1052100025B3012D04D0022D02D243A0FDF776FE66
:10522000B8F1000F10D0D8F80000716888420BD197
:10523000069818B1B1680698814205D1204607B09A
:10524000BDE8F08F274609E0012D13D0022D05D3CC
:10525000708A0099884201D3A1460090641C24B250
:105260000A2CCBDB05984FF0FF3180071CD40A2FA6
:1052700013D015E02B48039950F8310030B1708AF3
:1052800002998842EAD3A3460290E7E7708A01991F
:105290008842E3D3A2460190E0E70598C00703D017
:1052A0000A2F03DA3C4620E00846C8E7B9F10A0FA6
:1052B0000ADA4C461B4804EB440150F8310060B157
:1052C00029A0FDF723FE08E0BAF10A0F01DA5446DF
:1052D00003E0BBF10A0F23DA5C460A2C02DB28A0AC
:1052E000FDF714FE204600F06BF80A2C02DB24A028
:1052F000FDF70CFE0B4804EB440100EBC105287DD3
:1053000010B124A0FDF702FEB8F1000F02D0D8F8CA
:1053100000006860002068820698A86020468EE73A
:1053200008468CE7A46401207374617465203D3DD8
:10533000204554484152505F53544154455F5045B5
:105340004E44494E47207C7C207374617465203E36
:105350003D204554484152505F53544154455F539A
:105360005441424C450000006172705F7461626C90
:10537000655B695D2E71203D3D204E554C4C000013
:1053800069203C204152505F5441424C455F534993
:105390005A4500006172705F7461626C655B695DA3
:1053A0002E7374617465203D3D2045544841525030
:1053B0005F53544154455F454D505459000000001F
:1053C00070B50C4E00EB4004002556F83400002860
:1053D00003D008F00BF946F8345006EBC40005750D
:1053E00045828560456004490A68C26089880182F7
:1053F00070BD0000A464012046A701082DE9F04318
:1054000087B007460D46002D09D07C684FF48078A0
:10541000208840450FD1207906280CD105E024A032
:10542000FDF774FD07B0BDE8F0836079042802D170
:105430006088082803D0384608F0D8F8F2E7D4F896
:105440000E000690A0690590696819B1884203D1E1
:10545000012602E0002600E000260EB1012300E054
:10546000022304F10802914606A9284600F0AEFA8C
:10547000E088404503D0B0F5007F14D10FE096B12D
:1054800006AACDE901920221281D05F12A03039104
:10549000009019464A46284600F0D4F903E006A9D0
:1054A0002846FEF70DFA384608F0A0F8BAE70000E3
:1054B0006E6574696620213D204E554C4C000000FD
:1054C000FEB504460E461546002C02D13FA0FDF75E
:1054D0001DFD16B941A0FDF719FD280002D142A01B
:1054E000FDF714FD2146286800F0B9FD08B1424BD4
:1054F0003FE02868C0F303110E2925D0A168636836
:1055000000EA01020B409A4208D080B2A0F57E4129
:10551000A93903D0E068B0B304F10C05374B384922
:105520001A7802EB420001EBC000077D022F2ED358
:105530008768A7422BD12F684068874227D1314620
:10554000204600F05FF8FEBD01208DF80400002029
:105550008DF805005E208DF80600687800F07F0069
:105560008DF80700A8788DF80800E8788DF8090014
:1055700001AB4FF40060009004F12A02314620464E
:1055800000F03EFBFEBDFFE76FF00300FAE70022EC
:1055900002EB420001EBC000077D022F0CD38768AD
:1055A000A74209D12F684068874205D11A70314659
:1055B000204600F027F8E5E7521CD2B20A2AE7D3CA
:1055C00032462946204600F075F8DBE76E657469BF
:1055D0006620213D204E554C4C0000007120213D9D
:1055E000204E554C4C0000006970616464722021AB
:1055F0003D204E554C4C000040A70108940200206D
:10560000A46401202DE9F84306460F4615461C48C0
:1056100005EB450100EBC104207D022802D219A050
:10562000FDF774FC164A05EB4501207D02EBC10530
:105630000C35022818D1618A4FF00308B1F58E7F2E
:1056400007D9211D304600F07BF968B984F8148031
:105650000AE0B1F5877F07D32A46211D304600F0C6
:1056600075F908B984F814804FF4006000902B4657
:1056700006F12A023946304600F0C2FABDE8F88346
:10568000A46401206172705F7461626C655B617219
:10569000705F6964785D2E7374617465203E3D208F
:1056A0004554484152505F53544154455F5354410F
:1056B000424C45002DE9FC5F8246884617460AF1B8
:1056C0002A0001904FF0FF3600245146D8F8000020
:1056D00000F0C5FCA0B9D8F80000C0F303110E29F2
:1056E0000ED0B8F1000F0BD050B152460121404608
:1056F000FFF776FD0546002D05DA68B2BDE8FC9F90
:105700006FF00F00FAE77F2D02D337A0FDF7FEFB05
:1057100005F0FF0B38480BEB4B0900EBC905297D61
:1057200021B9012401212975C5F808A0287D012887
:1057300004D0022802D231A0FDF7E8FB04B96FB90A
:105740004146504600F0FCF80646300005D1287D61
:10575000012802D10CB9002068829FB1287DDFF8B2
:105760009880022810D32F4880F800B04FF40060D2
:10577000009005F10C0339465046019A00F040FABA
:1057800006462FE03046B9E701282BD100253C46DC
:105790000EE060892189884204D1206810B122A0DE
:1057A000FDF7B4FB207B400601D5012502E024680B
:1057B000002CEED13DB13A464FF420710E2007F097
:1057C00085FD074602E0384608F012F847B158F860
:1057D000390008B107F00AFF48F83970002601E0E7
:1057E0004FF0FF36304689E774797065206F766533
:1057F00072666C6F77000000A46401206172705FB4
:105800007461626C655B695D2E7374617465203DC3
:105810003D2050454E44494E47206F72205354411D
:10582000424C4500940200206E6F207061636B65EE
:10583000742071756575657320616C6C6F77656434
:10584000210000002DE9FF4F81B00646DDE90FABD6
:10585000DDF838901F464FF00008002E02D126A038
:10586000FDF754FB4FF420721C210E2007F090FB33
:10587000054628003CD068891C2802D222A0FDF7EA
:1058800045FB6C68119804F047FFE08096F8300003
:10589000062802D02948FDF739FB3868A060B8888F
:1058A000A081DAF80000C4F81200BAF80400E0821F
:1058B000D9F80000C4F80E00DBF80000A0614FF436
:1058C0008070208008206080062020710420607194
:1058D00040F60600DDE9022300902946304600F03C
:1058E0008FF9284607F082FE404605B0BDE8F08FEC
:1058F0004FF0FF30F9E700006E6574696620213DC6
:10590000204E554C4C000000636865636B20746842
:1059100061742066697273742070627566206361B9
:105920006E20686F6C642073747275637420657484
:10593000686172705F6864720000000014AA010858
:10594000014A00F003B8000040A701087FB5064DEA
:10595000031D0124CDE90035CDE902142633194693
:10596000FFF770FF04B070BD46A7010870B50024B2
:10597000154D04EB440005EBC002117DF9B1508ACE
:10598000401C80B25082B0F5967F03D2012905D128
:10599000052803D32046FFF713FD10E0032904D0A8
:1059A000042905D0012906D009E00420107506E07D
:1059B0000220107503E0111D9068FFF7C1FF641C01
:1059C0000A2CD6DB70BD0000A4640120F8B50446A3
:1059D0000D4616461F4694F83000062802D01EA039
:1059E000FDF794FA9DB1286888B1214600F037FB95
:1059F00068B92878C0F303100E2808D0224639462B
:105A00002846FFF7EDFB002804DA40B2F8BD6FF03E
:105A10000F00F8BD194A00EB400102EBC100022360
:105A2000037584603368C360B388038200234382B4
:105A300052F8315075B142F831304FF400600090A7
:105A4000334604F12A022946204600F0D9F82846B8
:105A500007F0CCFD0020F8BD6E657469662D3E68C8
:105A600077616464725F6C656E203D3D20455448EB
:105A70005F4857414444525F4C454E00A4640120A6
:105A800010B5112000F002F9C0F3803010BD0021E4
:105A90000268002A08DB0268120405D40268D205F5
:105AA00002D50068C0F30D41084670471CB5154883
:105AB00001788DF8001041788DF8011081788DF80B
:105AC0000210C1788DF8031001798DF80410407927
:105AD0008DF805000D480C490160012242609103D8
